:100000000C943C000C944E000C944E000C944E004A
:100010000C944E000C944E000C944E000C944E0028
:100020000C944E000C944E000C944E000C944E0018
:100030000C944E000C944E000C944E000C944E0008
:100040000C944E000C944E000C944E000C944E00F8
:100050000C944E000C944E000C944E000C944E00E8
:100060000C944E000C944E000C944E000C944E00D8
:100070000C944E000C944E0011241FBECFEFCDBF48
:10008000DFE3DEBF28E3A0E0B8E301C01D92A030AB
:10009000B207E1F70E947F000C942E010C9400003F
:1000A0000E94C40008950F931F93CF93DF93C0E085
:1000B000D0E001E011E01BC0812F0E94F30001306D
:1000C00021F4103841F0110F09C0011107C011309F
:1000D00021F0169503C000E001C001E02AE684E0AB
:1000E00091E0215080409040E1F700C02196C0315E
:1000F000D10514F3DF91CF911F910F9108950E94C4
:1001000050000E94F8000E9453000E94FC00FFCFA4
:1001100080E0089580E0089580E0089580E008C0C0
:10012000E82FF0E0E05FFB4F9081986090838F5F55
:100130008830B0F380E008C0E82FF0E0E05DFB4FCE
:100140009081986090838F5F8830B0F380E008C022
:10015000E82FF0E0E05BFB4F9081986090838F5F29
:100160008830B0F3089584B1877F84B9E3E3F4E085
:100170008081877F808385B18B7F85B984B18460DE
:1001800084B90E94220108950E948E0084B18F7B61
:1001900084B9E6E3F4E08081877F808389B18E7F34
:1001A00089B988B1816088B989B1826089B988B11B
:1001B000826088B989B18B7F89B988B1846088B938
:1001C00089B1877F89B988B1886088B90E948A001F
:1001D0000E94B3000E948C000E94F1000E948800DF
:1001E000089580E008950E9400010E941B01089577
:1001F00089B18D7F89B908958FEF0E94F30008952A
:1002000020E031E012C0932F982321F099B198603B
:1002100099B903C099B1977F99B9330F99B191609A
:1002200099B999B19E7F99B92F5F283060F389B150
:10023000877F89B9089589B1846089B989B18B7F35
:1002400089B90895E0E0F8E084E790E0808791873D
:1002500080EC868381E0838780E00895F894FFCF67
:00000001FF
