S01F0000415454494E59313632375F544C43353931365F46554C4C2E73726563B3
S11300000C943C000C944E000C944E000C944E0046
S11300100C944E000C944E000C944E000C944E0024
S11300200C944E000C944E000C944E000C944E0014
S11300300C944E000C944E000C944E000C944E0004
S11300400C944E000C944E000C944E000C944E00F4
S11300500C944E000C944E000C944E000C944E00E4
S11300600C944E000C944E000C944E000C944E00D4
S11300700C944E000C944E0011241FBECFEFCDBF44
S1130080DFE3DEBF28E3A0E0B8E301C01D92A330A4
S1130090B207E1F70E9453000C9419010C9400007C
S11300A00E94A70008950E94500010920238809187
S11300B002388F5F809302380E94D6008091023804
S11300C0809302082AE684E091E021508040904029
S11300D0E1F700C0ECCF80E0089580E0089580E06F
S11300E0089580E008C0E82FF0E0E05FFB4F9081C6
S11300F0986090838F5F8830B0F380E008C0E82F69
S1130100F0E0E05DFB4F9081986090838F5F8830D2
S1130110B0F380E008C0E82FF0E0E05BFB4F908193
S1130120986090838F5F8830B0F3089584B1877F9F
S113013084B9E3E3F4E08081877F808385B18B7F9A
S113014085B984B1846084B90E940D0108950E9428
S1130150710084B18F7B84B9E6E3F4E08081877F0A
S1130160808389B18E7F89B988B1816088B989B16A
S1130170826089B988B1826088B989B18B7F89B975
S113018088B1846088B989B1877F89B988B188606A
S113019088B90E946D000E9496000E946F000E9420
S11301A0D4000E946B00089580E00895CF93C82F77
S11301B00E9409018C2F0E94E3000E94FE000E940D
S11301C00501CF91089520E031E012C0932F9823C8
S11301D021F099B1986099B903C099B1977F99B901
S11301E0330F99B1916099B999B19E7F99B92F5FF5
S11301F0283060F389B1877F89B9089589B1846013
S113020089B989B18B7F89B9089589B18D7F89B9FD
S1130210089589B1826089B90895E0E0F8E084E73F
S113022090E08087918780EC868381E0838780E0FB
S10902300895F894FFCFCD
S9030000FC
