:100000000C943C000C944E000C944E000C944E004A
:100010000C944E000C944E000C944E000C944E0028
:100020000C944E000C944E000C944E000C944E0018
:100030000C944E000C944E000C944E000C944E0008
:100040000C944E000C944E000C944E000C944E00F8
:100050000C944E000C944E000C944E000C944E00E8
:100060000C944E000C944E000C944E000C944E00D8
:100070000C944E000C944E0011241FBECFEFCDBF48
:10008000DFE3DEBF28E3A0E0B8E301C01D92A530A6
:10009000B207E1F70E9471000C945C010C9400001F
:1000A0000E94C60008950E94060180910438880FBE
:1000B000880F8D5F0E9414012AE684E091E02150B0
:1000C00080409040E1F700C00E940D010E940101B4
:1000D0002AE684E091E0215080409040E1F700C0A2
:1000E00008950E9450000E940D0110920238109253
:1000F0000338109204380E94FD000E9401012AE694
:1001000084E091E0215080409040E1F700C00E94DF
:100110005300FDCF80E0089580E0089580E00895C9
:1001200080E008C0E82FF0E0E05FFB4F908198602E
:1001300090838F5F8830B0F380E008C0E82FF0E054
:10014000E05DFB4F9081986090838F5F8830B0F3C3
:1001500080E008C0E82FF0E0E05BFB4F9081986002
:1001600090838F5F8830B0F3089584B1877F84B91E
:10017000E3E3F4E08081877F808385B18B7F85B95D
:1001800084B1846084B90E94500108950E94900057
:1001900084B18F7B84B9E6E3F4E08081877F80833C
:1001A00089B18E7F89B988B1816088B989B182604F
:1001B00089B988B1826088B989B18B7F89B988B1E2
:1001C000846088B989B1877F89B988B1886088B926
:1001D0000E948C000E94B5000E948E000E94F300D5
:1001E0000E948A00089580E00895262F40E060E094
:1001F0000E941A010E944901089589B18D7F89B931
:10020000089568E08FEF0E94F500089525E048E02A
:100210006DE180E00E941A01089525E040E06DE163
:1002200080E00E941A01089528E040E86FEF0E94E4
:100230001A01089550E091E026C0392F382321F0AB
:1002400039B1386039B903C039B1377F39B9392F7D
:10025000362321F039B1326039B903C039B13D7F5D
:1002600039B9392F342321F039B1346039B903C099
:1002700039B13B7F39B9990F39B1316039B939B1E9
:100280003E7F39B95F5F5217C0F289B1877F89B964
:10029000089589B1846089B989B18B7F89B908953E
:1002A000E0E0F8E084E790E08087918780EC868347
:0C02B00081E0838780E00895F894FFCF80
:00000001FF
